:100000000C942A000C943C000C943C000C943E0090
:100010000C943C000C943C000C943C000C943C0070
:100020000C943C000C943C000C943C000C943C0060
:100030000C943C000C943C000C943C000C943C0050
:100040000C943C000C943C000C943C000C943C0040
:100050000C943C0011241FBECFE5D8E0DEBFCDBF1D
:1000600010E0A0E6B0E001C01D92A136B107E1F7B3
:100070000E9491000C94A6000C9400001F920F9215
:100080000FB60F9211248F939F93AF93BF93EF936B
:10009000FF93DF93CF93CDB7DEB7809160008F5F82
:1000A00080936000809160008A3011F410926000AB
:1000B000A5E3B0E0E5E3F0E08081807F8C93A5E3E9
:1000C000B0E0E5E3F0E0908180916000892B8C93B3
:1000D000CF91DF91FF91EF91BF91AF919F918F9160
:1000E0000F900FBE0F901F901895DF93CF93CDB751
:1000F000DEB7A4E5B0E0E4E5F0E0808180648C93B5
:10010000ABE5B0E0EBE5F0E0808180628C93AFE599
:10011000B0E0EFE5F0E0808180688C93CF91DF91D3
:100120000895DF93CF93CDB7DEB7A4E3B0E0E4E367
:10013000F0E080818F608C93A5E3B0E0E5E3F0E030
:100140008081807F8C930E947500FFCFF894FFCF51
:00000001FF
